:1000000001C0DBC01124809140008093400083FF39
:1000100004C0282E80E0B9D0F3C0A895449A4C9A29
:1000200084E08093E205809182128370813019F41C
:100030008CE590E002C083E790E0809328089093DD
:10004000290881E080932B0883E080932708109291
:10005000250880EC8093260888E097D0049A85E0F4
:10006000815061F0149A2EEC36E5A8959091240801
:1000700097FD05C021503109C1F7F2CFA89582E460
:1000800071D08FE66FD08FE66DD084E76BD08AE0B9
:1000900069D00DE983E0D82E6CD0813461F469D049
:1000A000182F7CD01238D9F0113811F489E001C032
:1000B00083E058D054C0823411F484E103C0853405
:1000C00019F485E073D04BC0853529F452D0C82F80
:1000D00050D0D82F43C0863521F484E067D080E02B
:1000E000E8CF8436B9F445D044D0182F42D08634B6
:1000F00011F4D05C01C0DC5E3CD0888321961150A5
:10010000D9F74CD004BFD0920010809102108370B8
:10011000E1F725C0843791F42CD02BD0182F29D0AB
:10012000F82E3CD086E4F81202C0D05C01C0DC5E40
:100130008881219617D01150D9F711C0853751F415
:100140002DD0809100110ED0809101110BD08091A3
:100150000211AFCF813511F481E017D01FD080E1BB
:1001600001D09ACF9091240895FFFCCF809322086C
:1001700008958091240887FFFCCF909121088091F9
:10018000200892FD01C0A89508959091010190FD6D
:10019000FCCF98ED94BF809300010895EADF803290
:1001A00019F081E0F2DFFFCF84E1DCCFCF93C82FDD
:1001B000E0DFC150E9F7CF91F1CF88ED84BF6093C4
:0C01C0000001809102108370E1F70895A7
:0201FE000009F6
:10020000E0E4F0E0808180838091FE019091FF0125
:1002100040E050E064E080E090E0CFDF0C9400002C
:00000001FF
