:1000000001C0E1C01124809140008093400083FF33
:1000100006C0282E80E00E94C6000C940001A8951E
:10002000009A089A1092E2058091821283708130C2
:1000300019F48CE590E002C083E790E08093080813
:100040009093090881E080930B0883E08093070870
:100050001092050880EC8093060888E00E94C60094
:10006000079A0DE983E0D82E0E94B900813479F413
:100070000E94B900182F0E94CF00123801F11138E8
:1000800011F489E001C083E00E94B20067C08234AD
:1000900011F484E103C0853421F485E00E94DA0084
:1000A0005DC0853539F40E94B900C82F0E94B9009F
:1000B000D82F52C0863529F484E00E94DA0080E00F
:1000C000E3CF8436E1F40E94B9000E94B900182FF2
:1000D0000E94B900863411F4D05C01C0DC5E0E943D
:1000E000B900888321961150D1F70E94CF0004BF38
:1000F000D0920010809102108370E1F72FC08437F6
:10010000B9F40E94B9000E94B900182F0E94B900EA
:10011000F82E0E94CF0086E4F81202C0D05C01C025
:10012000DC5E888121960E94B2001150D1F716C082
:10013000853769F40E94CF00809100110E94B200BF
:10014000809101110E94B200809102119DCF8135F2
:1001500019F481E00E94C6000E94CF0080E10E9455
:10016000B20082CF9091040895FFFCCF80930208E3
:1001700008958091040887FFFCCF90910108809139
:10018000000892FD01C0A895179A08959091010169
:1001900090FDFCCF98ED94BF8093000108950E94DC
:1001A000B900803221F081E00E94C600FFCF84E1D7
:1001B0000C94B200CF93C82F0E94B900C150E1F750
:1001C000CF910C94CF0088ED84BF609300018091A3
:0801D00002108370E1F70895AD
:0201FE000009F6
:10020000E0E4F0E0808180838091FE019091FF0125
:1002100040E050E064E080E090E00E94E3000C9455
:020220000000DC
:02000004008278
:00000001FF
