:1000000001C0E2C01124809140008093400083FF32
:1000100006C0282E80E00E94C7000C940001A8951D
:10002000A49AAC9A80E18093E20580918212837059
:10003000813019F48CE590E002C083E790E0809372
:1000400048089093490881E080934B0883E08093AF
:1000500047081092450880EC8093460888E00E948B
:10006000C700049A0DE983E0D82E0E94BA008134BB
:1000700079F40E94BA00182F0E94D000123801F1C2
:10008000113811F489E001C083E00E94B30067C019
:10009000823411F484E103C0853421F485E00E94A8
:1000A000DB005DC0853539F40E94BA00C82F0E947C
:1000B000BA00D82F52C0863529F484E00E94DB00B4
:1000C00080E0E3CF8436E1F40E94BA000E94BA00D7
:1000D000182F0E94BA00863411F4D05C01C0DC5E97
:1000E0000E94BA00888321961150D1F70E94D00057
:1000F00004BFD0920010809102108370E1F72FC0EE
:100100008437B9F40E94BA000E94BA00182F0E94E6
:10011000BA00F82E0E94D00086E4F81202C0D05C2B
:1001200001C0DC5E888121960E94B3001150D1F796
:1001300016C0853769F40E94D000809100110E949A
:10014000B300809101110E94B300809102119DCFF4
:10015000813519F481E00E94C7000E94D00080E13F
:100160000E94B30082CF9091440895FFFCCF80930A
:10017000420808958091440887FFFCCF9091410880
:100180008091400892FD01C0A895149A089590911D
:10019000010190FDFCCF98ED94BF8093000108957C
:1001A0000E94BA00803221F081E00E94C700FFCF98
:1001B00084E10C94B300CF93C82F0E94BA00C150C1
:1001C000E1F7CF910C94D00088ED84BF60930001DB
:0A01D000809102108370E1F708959A
:0201FE000009F6
:10020000E0E4F0E0808180838091FE019091FF0125
:1002100040E050E064E080E090E00E94E4000C9454
:020220000000DC
:02000004008278

:00000001FF
